:020000040000FA
:06000000BDEF01F012004B
:0A00060001009803000080000000D4
:040010000D000000DF
:0C00140080A418D0010EE66E01D9E55260
:1000200080A40FD0010EE66EFBD8E55280A406D066
:100030000001010E8C6FF36EF46A06D0F36AF46A65
:1000400003D0F36AF46A00D0120080B400D080A01C
:100050000CD00001822B0A0E825D07E3826B832B9A
:10006000060E835D02E3836B842B80A210D0000117
:10007000842B0A0E845D03E3846B852B08D0020E6B
:10008000855D05E1040E845D02E1846B856B1200E1
:10009000010EE66EC5D8E55280A41FD080A00BD01B
:1000A0000001882B0A0E885D06E3886B892B060EFB
:1000B000895D01E3896B80A210D000018A2B0A0EB2
:1000C0008A5D03E38A6B8B2B08D0020E8B5D05E102
:1000D000040E8A5D02E18A6B8B6B12000001812B9A
:1000E0000A0E815D1FE3816B802B060E805D1AE393
:1000F000806B822B0A0E825D15E3826B832B060ECA
:10010000835D10E3836B842B0A0E845D03E3846BB1
:10011000852B08D0020E855D05E1040E845D02E1A9
:10012000846B856B8651815D11E18751805D0EE1A5
:100130008851825D0BE18951835D08E18A51845DBC
:1001400005E18B51855D02E1808613D08651815D8A
:1001500010E18729805D0DE18851825D0AE18951B6
:10016000835D07E18A51845D04E18B51855D01E186
:1001700080961200D9CFE6FFE1CFD9FF040EE12629
:1001800000018739F00B8611DF6E8939F00B881179
:10019000E76E010EE7CFDBFF8B39F00B8A11E76EBC
:1001A000020EE7CFDBFFDF508B6E010EDB508C6E53
:1001B000020EDB508A6E040EE15C02E2E16AE55257
:1001C000E16EE552E7CFD9FF1200D9CFE6FFE1CFCC
:1001D000D9FF040EE12600018039F00B8111DF6E9A
:1001E0008339F00B8211E76E010EE7CFDBFF853913
:1001F000F00B8411E76E020EE7CFDBFFDF508B6E52
:10020000010EDB508C6E020EDB508A6E040EE15C38
:1002100002E2E16AE552E16EE552E7CFD9FF120052
:10022000D9CFE6FFE1CFD9FF030EE126DF6A010E49
:10023000DB6A020EDB6AD9CFE9FFDACFEAFF900E64
:10024000EE5C5F0EEE58010EEF5809E2D9CFE9FFE0
:10025000DACFEAFFEE2A000EEE22EE22ECD7030EF2
:10026000E15C02E2E16AE552E16EE552E7CFD9FFD7
:100270001200946A956A936A92809282928492960E
:100280000F0EC16E00018C5105E18050040B02E09D
:10029000C1DE12D08C0507E16DDFFADE80B402D03A
:1002A00000018C6B09D091DF010EE66EE66AB8DFC3
:0C02B000E552E55213DFC9DEE5D712006D
:0402BC00060EF66EC6
:1002C000000EF76E000EF86E00010900F550926FF7
:1002D0000900F550936F03E1926701D03DD009000A
:1002E000F5508D6F0900F5508E6F0900F5508F6F36
:1002F00009000900F550E96E0900F550EA6E0900A1
:1003000009000900F550906F0900F550916F090040
:100310000900F6CF94F0F7CF95F0F8CF96F08DC0A6
:10032000F6FF8EC0F7FF8FC0F8FF0001905302E187
:10033000915307E00900F550EE6E9007F8E291073F
:10034000F9D794C0F6FF95C0F7FF96C0F8FF0001FB
:0A0350009207000E935BBFD7120066
:06035A00000EF36E00EE40
:1003600000F0060E01D81200EA6002D0EE6AFCD757
:0A037000F350E9601200EE6AFCD7BA
:06037A0015EE00F025EE77
:1003800000F0F86A019C5EEC01F0CBEC01F039EC76
:0603900001F0FBD7120092
:02039600120053
:0803980005070905030200003E
:0503A000090503020045
:00000001FF
